:1000000080314A28043404347E1480310B1F0928BF
:100010000A2848282100911E0E280F281B2820009E
:10002000911E132814281B28220068088A006708DC
:100030000A00803148282100111E1F2820282C2862
:100040002000111E242825282C28230031088A008E
:1000500030080A00803148282100111F302831283B
:100060003A282000111F352836283A289E31432689
:10007000803148282100921C3E283F284828200033
:10008000921C4328442848289F31812780314828E2
:100090007E10090080314C282200803102208031FE
:1000A000EB00803103208031EC00F001F101F2011E
:1000B000F301F401F5012100EB012030840001304F
:1000C00085003B309D31F9258031A030840001301E
:1000D000850008309D31F9258031203084000230C0
:1000E000850050309D31F92580317E102000893106
:1000F000D8292100C50120006D082100C900200079
:100100006C082100C80020006B082100C7002000F7
:100110006A082100C60049082000CF0021004808D5
:100120002000CE00210047082000CD002100460815
:100130002000CC000030D3000030D2000030D100CD
:100140000030D0009331D42380310318A828A92887
:10015000CE2801302100C50049082000A30021005D
:1001600048082000A200210047082000A10021002B
:1001700046082000A0009E31372680312000230849
:100180002100C900200022082100C8002000210809
:100190002100C700200020082100C6002100CA015C
:1001A000CB01220049082100B600220048082100A6
:1001B000B50045080319DD28DE28EE284508031D93
:1001C000E228E328E8282B30AA000030AB00EC2816
:1001D0002D30AA000030AB002A08C50049082000D5
:1001E000A300210048082000A200210047082000A9
:1001F000A100210046082000A00093315523803142
:10020000200020032104031D062907293C29210081
:10021000450803190C290D29192945082400A000B7
:10022000FF302100B507FF30B63D0130CA00003075
:10023000CB004A08203E2000A0008830A100983062
:10024000A2009F310C278031FD302100B507FF301F
:10025000B63D20006908B5006808B4002030B6003B
:10026000210036082000B800210035082000B70022
:100270009031DC208031322F210049082000A3007A
:10028000210048082000A200210047082000A1000A
:10029000210046082000A000933155238031200022
:1002A00020082104031D55295629742921004508D9
:1002B00003195B295C29682945082400A000FF3048
:1002C0002100B507FF30B63D0130CA000030CB0039
:1002D0004A08203E2000A0008C30A1009830A200E7
:1002E0009F310C27803124293F302100CF008030FE
:1002F000CE000030CD000030CC00B301B40149087D
:100300002000A300210048082000A2002100470887
:100310002000A100210046082000A0000030A70016
:100320000030A6000030A5000030A40091318021EB
:10033000803103189C299D29F12AAB2921003A0814
:10034000CF003908CE003808CD003708CC00013086
:10035000B3070030B43D41302000B5002030B40078
:100360000030B3000030B20021004F082000B90077
:1003700021004E082000B80021004D082000B700E1
:1003800021004C082000B6008D31C52580312000A9
:1003900035082100BA00200034082100B9002000EF
:1003A00033082100B800200032082100B7003708C8
:1003B0004602A0003808473BA1003908483BA2008C
:1003C0003A08493BA30023082000A300210022088B
:1003D0002000A200210021082000A1002100200807
:1003E0002000A0009E31DC2680312000A31B062ABD
:1003F0002308031D072A2208031D072A2108031DBD
:10040000072A02302002031C062A072A9E292100FF
:100410003A082000CF00210039082000CE0021003A
:1004200038082000CD00210037082000CC00210032
:1004300049082000D300210048082000D2002100F4
:1004400047082000D100210046082000D000933149
:10045000D4238031031C2D2A2E2A9E2921004C08EA
:100460004602A0004D08473BA1004E08483BA200B1
:100470004F08493BA30023082000A30021002208C5
:100480002000A200210021082000A1002100200856
:100490002000A0009E31DC2680312000A31B5F2AB3
:1004A0002308031D5E2A2208031D5E2A2108031D5E
:1004B0005E2A0230200203185E2A5F2ACA2A21001F
:1004C0004F08C9004E08C8004D08C7004C08C600B8
:1004D000F12A41302000A3002030A2000030A1000A
:1004E0000030A00021004F082000A70021004E0886
:1004F0002000A60021004D082000A50021004C0886
:100500002000A40096315C268031200023082100C1
:10051000CF00200022082100CE0020002108210069
:10052000CD00200020082100CC00FF30B307FF30B1
:10053000B43D4C084602A0004D08473BA1004E08C0
:10054000483BA2004F08493BA30023082000A3001A
:10055000210022082000A200210021082000A10083
:10056000210020082000A0009E31DC2680312000E0
:10057000A31BC92A2308031DC82A2208031DC82A51
:100580002108031DC82A023020020318C82AC92ADC
:10059000CA2A5F2A210049082000CF00210048080C
:1005A0002000CE00210047082000CD002100460891
:1005B0002000CC0021004F082000D30021004E086D
:1005C0002000D20021004D082000D10021004C085D
:1005D0002000D0009331D4238031031CF02AF12A6B
:1005E000692A20006E082100AD002D08AE0022000F
:1005F000CB1BFB2AFC2A042B4B082100A70022005E
:100600004A082100A600092B06302100A600003070
:10061000A7002708B2002608B1000130B10700305A
:10062000B23D66302E06031D162B172B2F2BB41F41
:100630001A2B1B2B252B3F30CF008030CE000030F3
:10064000CD000030CC00B301B40167302D06031992
:100650002A2B2B2B2F2B3308B1073408B23DBB01BB
:10066000BC014908C0004808BF004708BE00460852
:10067000BD004F08BA004E08B9004D08B8004C083C
:10068000B700192C21004F082000A30021004E08BC
:100690002000A20021004D082000A10021004C08EC
:1006A0002000A000210040082000A70021003F08F2
:1006B0002000A60021003E082000A50021003D08E2
:1006C0002000A40096315C26803120002308BD0064
:1006D0002208BC002108BB002008BA0094315F2426
:1006E000803120003D082100C40020003C0821008A
:1006F000C30020003B082100C20020003A0821006E
:10070000C10044082000A300210043082000A200EB
:10071000210042082000A100210041082000A00083
:100720009231E6228031200021082100B000200013
:1007300020082100AF004F082000B90021004E081A
:100740002000B80021004D082000B70021004C080F
:100750002000B600210044082000B5002100430815
:100760002000B400210042082000B300210041080D
:100770002000B2008D31C525803120003508E3000E
:100780003408E2003308E1003208E00021004008AC
:100790002000E70021003F082000E60021003E087D
:1007A0002000E50021003D082000E4009F31C02723
:1007B0008031200063082100C00020006208210071
:1007C000BF00200061082100BE0020006008210059
:1007D000BD0041302000A3002030A2000030A10065
:1007E0000030A00021004F082000A70021004E0883
:1007F0002000A60021004D082000A50021004C0883
:100800002000A40096315C268031200023082100BE
:10081000CF00200022082100CE0020002108210066
:10082000CD00200020082100CC000130BB070030A3
:10083000BC3D3C08803AA0003208803A2002031DEB
:10084000232C31083B02031C262C272C422B403042
:100850002000B500A030B4000030B3000030B2007A
:1008600021004F082000B90021004E082000B800E8
:1008700021004D082000B70021004C082000B600E0
:100880008D31C5258031200035082100C4002000AD
:1008900034082100C300200033082100C2002000DA
:1008A00032082100C10040082000CF0021003F088D
:1008B0002000CE0021003E082000CD0021003D0890
:1008C0002000CC00210044082000D3002100430870
:1008D0002000D200210042082000D1002100410860
:1008E0002000D0009331D42380310318782C792C48
:1008F000832C00302100C4000030C3000030C2004F
:100900000030C100B72C210040082000A3002100C6
:100910003F082000A20021003E082000A100210085
:100920003D082000A000210044082000A70021006D
:1009300043082000A600210042082000A500210055
:1009400041082000A400913180218031031CA92C92
:10095000AA2CB72C21002F18AE2CAF2CB72C0030AE
:10096000C4000030C3000030C2000030C1002100CC
:1009700044082000CF00210043082000CE002100C1
:1009800042082000CD00210041082000CC002100B9
:1009900049082000D300210048082000D20021008F
:1009A00047082000D100210046082000D0008B31EC
:1009B000B923803120004F082100C00020004E08DC
:1009C0002100BF0020004D082100BE0020004C087F
:1009D0002100BD0040082000CF0021003F0820007A
:1009E000CE0021003E082000CD0021003D0820005F
:1009F000CC004130B5002030B4000030B3000030EE
:100A0000B20021003A082000B90021003908200076
:100A1000B800210038082000B70021003708200066
:100A2000B6008D31C525803120003508D30034084B
:100A3000D2003308D1003208D0009331D423803162
:100A4000031C232D242D5F2D01302100B30700301E
:100A5000B43D41302000B5002030B4000030B30078
:100A60000030B20021003A082000B9002100390806
:100A70002000B800210038082000B7002100370806
:100A80002000B6008D31C5258031200035082100B9
:100A9000BA00200034082100B900200033082100EA
:100AA000B800200032082100B70066302E06031D72
:100AB0005A2D5B2D5F2D0130B1070030B23D210072
:100AC0003A08CF003908CE003808CD003708CC00EE
:100AD0003408A5003308A400AC01A801A901BB019A
:100AE000BC01BA2E21004F082000A30021004E08AF
:100AF0002000A20021004D082000A10021004C0888
:100B00002000A000210040082000A70021003F088D
:100B10002000A60021003E082000A50021003D087D
:100B20002000A40096315C26803120002308BD00FF
:100B30002208BC002108BB002008BA0094315F24C1
:100B4000803120003D082100C40020003C08210025
:100B5000C30020003B082100C20020003A08210009
:100B6000C10044082000A300210043082000A20087
:100B7000210042082000A100210041082000A0001F
:100B80009231E622803120002108803A2100A00025
:100B900080302002031DCF2D0A30200020020318D0
:100BA000D22DD32DEF2D210044082000A3002100D9
:100BB00043082000A200210042082000A1002100DB
:100BC00041082000A0009231E62280312000210857
:100BD0002100B000200020082100AF00F42D0930D2
:100BE0002100AF000030B0002C08031DF82DF92DB6
:100BF000222EA51FFC2DFD2D222E4A08203E860008
:100C0000023087002E3081000130CA070030CB3D12
:100C1000FF30B507FF30B63D0130AC00222E4A0848
:100C2000203E860002308700303081000130CA0744
:100C30000030CB3DFF30B507FF30B63DFF30A80791
:100C4000FF30A93D28082904031D272E282E0F2E2A
:100C50004A08203E8600023087002F08303E81007F
:100C60000130CA070030CB3DFF30B507FF30B63D3D
:100C70004F082000B90021004E082000B8002100D4
:100C80004D082000B70021004C082000B6002100CC
:100C900044082000B500210043082000B4002100D2
:100CA00042082000B300210041082000B2008D312D
:100CB000C525803120003508E3003408E200330800
:100CC000E1003208E000210040082000E700210098
:100CD0003F082000E60021003E082000E50021003A
:100CE0003D082000E4009F31C027803120006308C8
:100CF0002100C000200062082100BF002000610820
:100D00002100BE00200060082100BD00413020000D
:100D1000A3002030A2000030A1000030A00021007C
:100D20004F082000A70021004E082000A600210047
:100D30004D082000A50021004C082000A400963199
:100D40005C268031200023082100CF0020002208EB
:100D50002100CE00200021082100CD002000200825
:100D60002100CC00FF30A407FF30A53D0130BB07B8
:100D70000030BC3D3C08803AA0003208803A200296
:100D8000031DC42E31083B020318C72EC82ED62ED1
:100D900021004B08803AA00080302002031DD22E93
:100DA0004B304A02031CD52ED62E722D4F30210017
:100DB000BB000030BC003B08203E860002308700AC
:100DC00081012030A0004A0820023B072000A0003B
:100DD0002030A10021004B082000A30021004A0878
:100DE0002000A20090316620803121004A083B0299
:100DF000CA004B083C3BCB004508031D002F022FC7
:100E00000130032F0030A000A1012008BB00210801
:100E1000BC00450803190D2F0E2F192FFF30CA07EC
:100E2000FF30CB3D4A08203E86000230870045084F
:100E300081003B08B5023C08B63B20006908B500BC
:100E40006808B40021004A08203E2000B6002100B6
:100E500036082000B800210035082000B700903186
:100E6000DC20803108002000AC002C080319392F49
:100E70003A2F4E2FA71F3D2F3E2F4E2F2409AE0095
:100E80002509AF002609B0002709B100AE0A0319F1
:100E9000AF0A0319B00A0319B10A562F2708B10087
:100EA0002608B0002508AF002408AE002708260455
:100EB00025042404031D5D2F5E2F672F0030A7003B
:100EC0000030A6000030A5000030A400D72F9630D7
:100ED000AD00732F0130AD070130B136B00CAF0C4F
:100EE000AE0C890B6D2FFE303105031D782F792F45
:100EF0006A2F892F0130AD070130AE070030AF3DBA
:100F0000B03DB13D0130B136B00CAF0CAE0C890B29
:100F1000832FFF303105031D8E2F8F2F7A2F992FAE
:100F20000130AD020130AE35AF0DB00DB10D890B02
:100F3000932FB01B9C2F9D2FA32F02302D0203183F
:100F4000A22FA32F902F2D18A62FA72FAF2FFF3042
:100F5000AE05FF30AF057F30B005FF30B10503109F
:100F6000AD0C2D08A800A901AA01AB011830A835C5
:100F7000A90DAA0DAB0D890BB72F2808AE042908BF
:100F8000AF042A08B0042B08B1042C080319C92F98
:100F9000CA2FCF2FA71FCD2FCE2FCF2FB11731089C
:100FA000A7003008A6002F08A5002E08A4000800FE
:100FB0007E1CDC2F903101282100111AE02FE12F37
:100FC000E62F2000200823009A00FD2F7308031944
:100FD000EA2FEB2FFD2F7508303E86000130870089
:100FE0002000200881007508013E0739A100210872
:100FF000F500210011120130F30221001116080042
:101000007308031D04280628013007280030080053
:101010002000B201B3011F283108AF00B0012F0832
:10102000A3003008A4002E08A6002D08A5009231C8
:101030008822883101302000B2070030B33D2C08EF
:1010400032078600023087000108B1003108031D15
:101050002A282B280C28080020005B08CF005A08FB
:10106000CE005908CD005808CC005F08D3005E08B8
:10107000D2005D08D1005C08D0009331D4238831C0
:101080000318432844285D282000610886000130A9
:10109000870003300106031D4E284F285D28610894
:1010A0008600013087000430810022000C112000EE
:1010B00065088A0064080A008831200061088600FB
:1010C000013087000108031D662867287628F43060
:1010D000A0000130A1009F3127278831200061083E
:1010E00086000130870001308100D7291830600662
:1010F000031D7B287C2893284130CF009E30CE00F2
:101100006630CD006630CC005B08D3005A08D200B0
:101110005908D1005808D0009331D42388310318DE
:1011200092289328B1280C3020006006031D9928CE
:101130009A28D3284130CF001E30CE006630CD0033
:101140006630CC005B08D3005A08D2005908D100A1
:101150005808D0009331D4238831031CB028B1281B
:10116000D328200061088600013087000103031D99
:10117000BA28BB28D32863088A0062080A0088318D
:1011800088302000A0001330A1009F31272788312C
:1011900020006108860001308700023081009F3105
:1011A000A02788311E29183020006006031DD92889
:1011B000DA28F1284130CF009E30CE006630CD00D5
:1011C0006630CC005B08D3005A08D2005908D10021
:1011D0005808D0009331D4238831031CF028F1281B
:1011E0000F290C3020006006031DF728F8281E295F
:1011F0004130CF001E30CE006630CD006630CC00CE
:101200005B08D3005A08D2005908D1005808D00012
:101210009331D423883103180E290F291E29200069
:1012200061088600013087000103031D1829192970
:101230001E296108860001308700810118302000D6
:101240006006031D242925293C294130CF00943014
:10125000CE00CC30CD00CD30CC005B08D3005A0896
:10126000D2005908D1005808D0009331D4238831D6
:1012700003183B293C295A290C3020006006031D25
:10128000422943296B294130CF001430CE00CC30A5
:10129000CD00CD30CC005B08D3005A08D2005908ED
:1012A000D1005808D0009331D4238831031C592928
:1012B0005A296B292000610886000130870003301D
:1012C00001020318642965296B2961088600013031
:1012D000870003308100183020006006031D71294B
:1012E000722989295B08CF005A08CE005908CD0021
:1012F0005808CC004130D3001030D2000030D1006B
:101300000030D0009331D4238831031888298929EB
:10131000A7290C3020006006031D8F299029D729AA
:101320005B08CF005A08CE005908CD005808CC0001
:101330004030D300C030D2000030D1000030D000A7
:101340009331D4238831031CA629A729D72920004B
:10135000610886000130870004300106031DB129B1
:10136000B229D72961088600013087008101220057
:101370000C15200063088A0062080A008931F430E5
:101380002000A0000130A1009F31272788312200D2
:101390000C11200065088A0064080A008931D030E9
:1013A0002000A0000730A1009F31272788310800C6
:1013B0009E31A12689318B170B179D31E625893186
:1013C00045302000A0001130A1009E312226893135
:1013D00062302000A0001F30A1009E3152268931CA
:1013E0004B302200DB009830DC009E31C82689316A
:1013F00030302200DB009830DC009E31C826893175
:10140000C0302000CF005530CE009930CD009A304A
:10141000CC003A30B5006630B4006530B300FB3024
:10142000B2000530903122208931200020082100AF
:10143000E700200021082100E800E901EA016A082C
:101440002000A700210069082000A60021006808EC
:101450002000A500210067082000A400003087318B
:101460003327893120002708B9002608B80025084D
:10147000B7002408B6008D31C52589312000350814
:10148000D3003408D2003308D1003208D0008B31A9
:10149000B923893120004F082200C30020004E08E4
:1014A0002200C20020004D082200C10020004C088C
:1014B0002200C000BF302000CF00C330CE007D30FE
:1014C000CD00AC30CC003930B500DF30B4006B302B
:1014D000B3000E30B2000630903122208931200056
:1014E00020082100E700200021082100E800E90190
:1014F000EA016A082000A700210069082000A60070
:10150000210068082000A500210067082000A40031
:10151000003087313327893120002708B900260899
:10152000B8002508B7002408B6008D31C5258931DB
:1015300020003508D3003408D2003308D100320827
:10154000D0008B31B923893120004F082200C70019
:1015500020004E082200C60020004D082200C500D1
:1015600020004C082200C40040302000CF00C030D2
:10157000CE000030CD000030CC0022004708200013
:10158000D300220046082000D20022004508200097
:10159000D100220044082000D0009331D4238931A7
:1015A000031CD32AD42ADE2A00302300AB000030EB
:1015B000AA000030A9000030A800EE2A2200470847
:1015C0002300AB00220046082300AA0022004508A1
:1015D0002300A900220044082300A8004130200075
:1015E000CF001030CE000030CD000030CC00220003
:1015F00043082000D300220042082000D20022002D
:1016000041082000D100220040082000D000933182
:10161000D4238931031C0D2B0E2B182B00302300F3
:10162000AF000030AE000030AD000030AC00282B21
:10163000220043082300AF00220042082300AE002E
:10164000220041082300AD00220040082300AC0026
:1016500077302200DB009830DC0023002F082200C6
:10166000E00023002E082200DF0023002D082200C6
:10167000DE0023002C082200DD0023002B082200BE
:10168000E40023002A082200E300230029082200A6
:10169000E200230028082200E1009E31C82689319B
:1016A000220043082000DB00220042082000DA006C
:1016B000220041082000D900220040082000D80064
:1016C0004130DF001030DE000030DD000030DC0093
:1016D0001830E0006C30E100EF30E2001D30E30034
:1016E000E930E4001D30E50088312C2089312200EA
:1016F00047082000DB00220046082000DA00220014
:1017000045082000D900220044082000D8004030BD
:10171000DF00C030DE000030DD000030DC000C30C7
:10172000E0006B30E100F230E2001D30E300EC300D
:10173000E4001D30E50088312C20893122005A0355
:10174000031DA32BA42BA52BAE2B0A302000A00039
:101750000030A1009F3127278931002A6330220001
:10176000DB009830DC009E31C8268931AE2B8031F9
:101770004A2820004F088039DC004F35DE00CE1F9C
:10178000C22BC32BC42B5E145E080319C82BC92BB4
:10179000D92B5E0A031DCD2BCE2BD62B0030CF00CC
:1017A0000030CE000030CD000030CC00CE17CF018D
:1017B000E12B0030CF000030CE000030CD000030F3
:1017C000CC0053088039DD005D085C060319E92B65
:1017D000EA2BEB2B5C175335DD00D21FF02BF12BDE
:1017E000F22B5D145D080319F62BF72B072C5D0A0D
:1017F000031DFB2BFC2B042C0030D3000030D20047
:101800000030D1000030D000D217D3010F2C0030AF
:10181000D3000030D2000030D1000030D0005E088C
:101820005D020318142C152C392C5C1F182C192C54
:101830001B2C8030DC065E08DF005D08DE005F08E0
:10184000DD004C08DF005008CC005F08D0004D08D8
:10185000DF005108CD005F08D1004E08DF005208BC
:10186000CE005F08D2004F08DF005308CF005F08AA
:10187000D300DF015D08D400D5015508D7005E080C
:101880005402D600031CD7035708803AD800803092
:101890005802031D4D2C1A305602031C502C512C9B
:1018A000872C20004F084E044D044C04031D592C76
:1018B0005B2C01305C2C0030DF000030CF000030AA
:1018C000CE000030CD000030CC005D08DE008E2C54
:1018D0005F1C6B2C6C2C762C5F08D4000130D43646
:1018E000890B6F2C54080138DF00782C0310DF0CB3
:1018F0004C1C7B2C7C2C7D2CDF170130D400CF3787
:10190000CE0CCD0CCC0CD40B7F2C0130DE0720008C
:101910005D085E02031C8D2C8E2C682C5C1B912CA8
:10192000922CCC2C5E08031D962C972CA02C0030FA
:10193000CF000030CE000030CD000030CC00C42DF0
:101940005008CC075108CD3D5208CE3D5308CF3D3D
:101950004F1CAB2CAC2C562D5F1CAF2CB02CBA2CD2
:101960005F08D4000130D436890BB32C54080138F9
:10197000DF00BC2C0310DF0C4C1CBF2CC02CC12C76
:10198000DF170130D400CF37CE0CCD0CCC0CD40BEC
:10199000C32C0130DE07562D4F08803AD40053087F
:1019A000803A5402031DDE2C52084E02031DDE2C29
:1019B00051084D02031DDE2C50084C020318E12C87
:1019C000E22C172DFF30D400FF30D500FF30D600B9
:1019D000FF30D7004C085002D8004D08513BD900C9
:1019E0004E08523BDA004F08533BDB005808D4073F
:1019F0005908D53D5A08D63D5B08D73D5708CF005A
:101A00005608CE005508CD005408CC008030DC06C6
:101A10005F03FF3ADF005F08031D0F2D102D1F2D00
:101A20000130CC070030CD3DCE3DCF3D1F2D5008BD
:101A3000CC025108CD3B5208CE3B5308CF3B4F0858
:101A40004E044D044C04031D262D272D522D5F08F6
:101A5000031D2B2D2C2D522D0030CF000030CE0039
:101A60000030CD000030CC00C42D0130CC35CD0D80
:101A7000CE0DCF0D890B362DDF1F3F2D402D412D73
:101A80004C145F1C442D452D492D03145F0DDF00C0
:101A90004B2D0310DF0D5E0803194F2D502D522DD5
:101AA0000130DE02CE1F552D562D352DDD01DF1FF5
:101AB0005A2D5B2D692D5F087F390319602D612D2B
:101AC000642D0130DD00692D4C1C672D682D692DBA
:101AD000612D5D0803196D2D6E2D972D0130CC07FA
:101AE0000030CD3DCE3DCF3D4F1C772D782D972D2D
:101AF0004C08D4004D08D5004E08D6004F08D7003A
:101B00000130D800D737D60CD50CD40CD80B822D89
:101B10005708CF005608CE005508CD005408CC0019
:101B20005E0A0319942D952D972D0130DE075E0A6C
:101B300003199B2D9C2DA12D5E08031DA02DA12D09
:101B4000AF2D0030CF000030CE000030CD0000308F
:101B5000CC005E08031DAD2DAE2DAF2DDC015E1C4B
:101B6000B22DB32DB52DCE17B72D7F30CE055E0823
:101B7000D4000130D436890BBA2D5408CF00DC1FB5
:101B8000C22DC32DC42DCF17080020003508803981
:101B9000BF003535C500B41FCE2DCF2DD02D451437
:101BA00045080319D42DD52DE42D450A031DD92D43
:101BB000DA2DE22D0030B5000030B4000030B30063
:101BC0000030B200B417EC2D0030B5000030B40086
:101BD0000030B3000030B20039088039BF06393513
:101BE000C000B81FF42DF52DF62D40144008031940
:101BF000FA2DFB2D0A2E400A031DFF2D002E082E64
:101C00000030B9000030B8000030B7000030B60036
:101C1000B817122E0030B9000030B8000030B700FD
:101C20000030B60040080319162E172E1C2E45084A
:101C3000031D1B2E1C2E252E0030B5000030B400D5
:101C40000030B3000030B200FF2F3208A000380887
:101C5000903189208D3120002108CB002008CA0056
:101C60004A08BA00BB01BC01BD013D08C4003C08E4
:101C7000C3003B08C2003A08C1004B08BA00BB01D0
:101C8000BC01BD013D08C9003C08C8003B08C700B5
:101C90003A08C6003308A0003708903189208D31FA
:101CA00020002108CB002008CA004A08BA00BB0166
:101CB000BC01BD013A08C1073B08C23D3C08C33D19
:101CC0003D08C43D4B08BA00BB01BC01BD013A0848
:101CD000C6073B08C73D3C08C83D3D08C93D340820
:101CE000A0003608903189208D3120002108CB00DA
:101CF0002008CA004A08BA00BB01BC01BD013A086D
:101D0000C1073B08C23D3C08C33D3D08C43D4B08EC
:101D1000BA00BB01BC01BD013A08C6073B08C73D7C
:101D20003C08C83D3D08C93D0830C135C20DC30D52
:101D3000C40D890B952E3308A000360890318920F8
:101D40008D3120002108CB002008CA004A08C107B5
:101D50004B08C23D0030C33DC43D3208A0003708E7
:101D6000903189208D3120002108CB002008CA0045
:101D70004A08C1074B08C23D0030C33DC43D08308E
:101D8000C135C20DC30DC40D890BC02E3208A00091
:101D90003608903189208D3120002108CB002008A1
:101DA000CA004A08C1074B08C23D0030C33DC43DCC
:101DB0003308A0003808903189208D312000210897
:101DC000CB002008CA004A08C6074B08C73D0030B0
:101DD000C83DC93D3408A0003708903189208D31B5
:101DE00020002108CB002008CA004A08C6074B087B
:101DF000C73D0030C83DC93D3408A00038089031C7
:101E000089208D3120002108CB002008CA004A0813
:101E1000BA004B08BB00BC01BD010830BA35BB0D90
:101E2000BC0DBD0D890B0E2F3A08C6073B08C73DF8
:101E30003C08C83D3D08C93D4108BA004208BB0006
:101E40004308BC004408BD001830BD36BC0CBB0CB8
:101E5000BA0C890B252F3A08C6073B08C73D3C083A
:101E6000C83D3D08C93D0830C135C20DC30DC40D84
:101E7000890B342F45084007BA00BB01BB0D3A0857
:101E8000823ECA00FF303B3DCB005D2F0130C6359E
:101E9000C70DC80DC90D890B472FC41F502F512FD7
:101EA000522F46140130C135C20DC30DC40D890B2C
:101EB000532FFF30CA07FF30CB3DC81F602F612F63
:101EC000462FC001C41F652F662F822FFF304105AA
:101ED000BA00FF304205BB00FF304305BC007F3035
:101EE0004405BD003D083C043B043A040319792F26
:101EF0007A2F7D2F0130C000822F461C802F812F2A
:101F0000822F7A2F40080319862F872FAD2F01309B
:101F1000C6070030C73DC83DC93D491C902F912FD1
:101F2000AD2F4608BA004708BB004808BC00490866
:101F3000BD000130BE00BD37BC0CBB0CBA0CBE0BE3
:101F40009B2F3D08C9003C08C8003B08C7003A0861
:101F5000C6000130CA070030CB3D4B08803ABA00BA
:101F600080303A02031DB62FFF304A02031CB92FFE
:101F7000BA2FC42F7F302000C9008030C800003045
:101F8000C7000030C600F52F20004B08803ABA0089
:101F900080303A02031DCE2F01304A020318D12FA0
:101FA000D22FDD2F00302000C9000030C8000030E3
:101FB000C7000030C600BF01F52F20004A08C50049
:101FC000FF30C605FF30C7057F30C8050030C905A2
:101FD000451CEB2FEC2FED2FC8174508BA00013038
:101FE000BA36890BF02F3A08C9003F08C9044908DE
:101FF000B5004808B4004708B3004608B20008001E
:1020000008002100111A052806280A28760823004E
:102010009A001F28730803190E280F281F28750817
:10202000303E860001308700760881007508013E49
:102030000739F7007708F50011120130F30221008B
:10204000111608002000A3002308A200A20DA20D73
:1020500021001D08200022068339220621009D0050
:102060001D140630890B3228003221009D149D1862
:102070003A283B2837281C082000A10021001B0813
:102080002000A00008007108A03E860001308700F3
:102090000108F7007108013E0739F6007608F100E3
:1020A0007135203E860001308700403F2200D40079
:1020B000413FD50021009112700803196028612862
:1020C00063280130F00291167708080020002108EB
:1020D000A6002008A5007C2826088600023087007C
:1020E0000108A4000130A6072508860002308700F9
:1020F000240881000130A5070130A2020030A33B73
:10210000220A031D8728230A031D872888286C2894
:1021100008002000A800A401A5012008A200A30136
:102120002208A6002308A700281C972898289C2886
:102130002608A4072708A53D0130A635A70D890B61
:102140009D280310A80C2808031DA728A828942858
:102150002508A1002408A000080022008C018E019F
:102160000B3021008C0037308E00233023008C0090
:102170001F308E000F3024008C003F308E00210075
:10218000951325008C018E01373026008C003F30DE
:102190008E003F3027008C003F308E0015303C0011
:1021A000A40014303D00A300270091019201930187
:1021B00097019801990108002000B81FE028E12844
:1021C000E328B701B801BA01BB01F728203020008D
:1021D000A3000030A4003508A6003408A500923101
:1021E0008822903101302000BA070030BB3D3B0807
:1021F000803AB9003808803A3902031D01293708AE
:102200003A02031C04290529E62820003608AC0000
:102210003508AE003408AD00883108209031080040
:1022200021009112CF302200E7001130E800210098
:102230001112F2302300B0001E30B10048309F0070
:1022400090309D0026309E00A0309B0001309C0005
:10225000E5302000A0001D30A1009E3161269131A3
:10226000F5302000A0001D30A1009E317026913174
:102270002200D401D501F501F4010830F300F20188
:10228000F101F001210091160800033022006C06D4
:10229000031D4B294C29572903100C1E0314031846
:1022A0005229552922000C16572922000C120330FE
:1022B0006B06031D5C295D29682903108C1E03141D
:1022C00003186329662922008C16682922008C12C3
:1022D00003306C0603196D296E29742903306B06CF
:1022E000031D732974297F2903100C1D031403187F
:1022F0007A297D2922000C157F2922000C11080063
:10230000003020002005A80000302105A900803001
:102310002205AA007F302305AB002B082A042904DC
:102320002804031D942995299D290030A30000301D
:10233000A2000030A1000030A00000302405A80059
:1023400000302505A90080302605AA007F3027052A
:10235000AB002B082A0429042804031DB029B12945
:10236000B9290030A7000030A6000030A5000030D9
:10237000A40027082306031DC72926082206031DDB
:10238000C72925082106031DC7292408200603198B
:10239000CA29CB29CD290310CE2903140800723590
:1023A000203E8600013087000030C03FC13F23003F
:1023B0009D1CDB29DC29EE297235203E8600013088
:1023C0008700011522004C084D040319E829E9296A
:1023D000EE294D088A004C080A00913123001D1D8A
:1023E000F229F329052A7235203E86000130870044
:1023F000811422004E084F040319FF29002A052AE0
:102400004F088A004E080A00923123001908FA008A
:102410007208013E0739FB007B087106031D112A73
:10242000122A132A1E2A7208A03E86000130870055
:102430007A0881007B08F2000130F0072200500882
:1024400051040319242A252A2A2A51088A005008EF
:102450000A00923108002000AC01AD012608860078
:102460008701403FA800413FA900280884002908AF
:10247000850012002A3A031D3E2A3F2A6F2A2608A9
:10248000860087010130810741310318810A27083E
:102490008600870101088400013085000230810731
:1024A000003FAC00013FAD00832A2D08A1002C089D
:1024B000A0000A30A2000030A3009F31E027923133
:1024C00020002B082007AC000030213DAD0026087D
:1024D000860087010130810741310318810A2608EF
:1024E00086008701403FA800413FA90028088400DA
:1024F000290885000008D03EAB000A302B02031CDF
:10250000822A832A552A2D08A7002C08A600080035
:1025100020002508260403198E2A8F2A952A2508CB
:102520002604031D942A952A9A2A23089E31902670
:102530009231E52A250886002608870049311600D1
:1025400001040319A42AA52AC52A250886002608FD
:1025500087004931403FA700413FA8002508860079
:10256000260887004231403FA900413FAA002A08BF
:10257000803AAB002808803A2B02031DC12A2708A5
:1025800029020318C42AC52AE52A20002508860046
:102590002608870042312508840026088500003F70
:1025A000A700013FA800403F27078400413F283D86
:1025B0008500230880002508860026088700423110
:1025C0000130810741310318810A080003102000FF
:1025D000220D230DA9002908031DEF2AF02AF92A4C
:1025E0000030A3000030A2000030A1000030A000A5
:1025F000542B2008A4002108A5002208A6002308C7
:10260000A7001F30A736A60CA50CA40C890B022B23
:102610002408A800A217FF30A005FF30A105FF3055
:10262000A2050030A3059630A902A91F182B192B6B
:102630002F2B2908803A973E03181F2B202B212B84
:10264000F02A0130A336A20CA10CA00C890B222B7E
:102650000130A907031D2D2B2E2B212B442B2030BD
:102660002902031C342B352B3F2BF02A0130A035D7
:10267000A10DA20DA30D890B372B0130A90229084A
:10268000031D432B442B362B28080319482B492BB9
:10269000542BA009A109A209A309A00A0319A10AA0
:1026A0000319A20A0319A30A080022003F08200008
:1026B000AF0022003E082000AE0022003D082000AE
:1026C000AD0022003C082000AC002308AF00220827
:1026D000AE002108AD002008AC002C08A4002D0895
:1026E000A5002E08A6002F08A7001730A736A60CB5
:1026F000A50CA40C890B762BFF302405AA00003012
:102700002505AB002A082B04031D872B882BA92B3A
:102710002C08A4002D08A5002E08A6002F08A7004D
:102720000130A435A50DA60DA70D890B912B270807
:10273000260425042404031D9E2B9F2BA42B02306A
:10274000A0000030A100D32B0330A0000030A10076
:10275000D32B2A0A2B04031DAE2BAF2BCF2B2C0817
:10276000A4002D08A5002E08A6002F08A7000930F8
:10277000A435A50DA60DA70D890BB82B2708260497
:10278000250424040319C52BC72B0130C82B0030A6
:10279000A800A9012808A0002908A100D32B043013
:1027A000A0000030A1000800003020004C05D4003B
:1027B00000304D05D50080304E05D6007F304F05E6
:1027C000D7005708560455045404031DE82BE92B81
:1027D000F12B0030CF000030CE000030CD000030B3
:1027E000CC0000305005D40000305105D5008030B9
:1027F0005205D6007F305305D700570856045504BC
:102800005404031D042C052C0D2C0030D300003083
:10281000D2000030D1000030D000CF1F102C112C7E
:10282000292C0030D4000030D5000030D600803094
:10283000D7004C08D4024D08D53B4E08D63B4F0874
:10284000D73B5708CF005608CE005508CD00540896
:10285000CC00D31F2C2C2D2C452C0030D400003064
:10286000D5000030D6008030D7005008D40251087F
:10287000D53B5208D63B5308D73B5708D3005608E0
:10288000D2005508D1005408D0008030CF068030E7
:10289000D30653084F02031D572C52084E02031D46
:1028A000572C51084D02031D572C50084C02031899
:1028B0005A2C5B2C5D2C03105E2C031408002200A4
:1028C0003B082000CD0022003A082000CC00220066
:1028D00039082000CB00220038082000CA003D083B
:1028E000CD003C08CC003B08CB003A08CA004A089F
:1028F000BE004B08BF004C08C0004D08C100173097
:10290000C136C00CBF0CBE0C890B802CFF303E05BD
:10291000C20000303F05C3004208813EC800FF30BE
:10292000433DC9004908803ABE0080303E02031D85
:102930009B2C17304802031C9E2C9F2CA02C492D49
:102940002000C91BA42CA52C022DFF30BE00FF3097
:10295000BF007F30C0000030C100480AB32CC1372F
:10296000C00CBF0CBE0C890BAF2C4108C70040083F
:10297000C6003F08C5003E08C4004A084405BE0022
:102980004B084505BF004C084605C0004D084705EB
:10299000C100410840043F043E04031DD02CD12C4B
:1029A000D22C9F2C4A08BE004B08BF004C08C00028
:1029B0004D08C1001F30C136C00CBF0CBE0C890BC6
:1029C000DB2C410840043F043E040319E82CE92CA9
:1029D000F12C4408CA074508CB3D4608CC3D4708C2
:1029E000CD3D4409BE004509BF004609C000470966
:1029F000C1003E08CA053F08CB054008CC05410888
:102A0000CD05412D4A08BE004B08BF004C08C00050
:102A10004D08C1001F30C136C00CBF0CBE0C890B65
:102A20000B2D410840043F043E04031D182D192DB1
:102A3000222D0030CD000030CC000030CB00003023
:102A4000CA00412D4A08BE004B08BF004C08C00018
:102A50004D08C1000130BE35BF0DC00DC10D890B41
:102A60002B2D410840043F043E040319382D392D15
:102A7000412DBF30CD008030CC000030CB00003085
:102A8000CA004D08BD004C08BC004B08BB004A08FA
:102A9000BA0008002100520886008701403FD40098
:102AA000413FD50054088400550885001200253A9E
:102AB000031D5B2D5C2D3A2E5208860087010130E4
:102AC000810741310318810A2200C801C901003081
:102AD0002100EB00FF302200CA00FF30CB002100B4
:102AE000520886008701403FD400413FD50054087A
:102AF00084005508850012002E3A031D802D812D7B
:102B00009B2D52088600870101308107413103184F
:102B1000810A52082000A600210053082000A700C7
:102B200092312B229531200027082200CB00200073
:102B300026082200CA002100520886008701403F73
:102B4000DD00413FDE005D0884005E08850000086E
:102B5000DC00B42D0130DD070030DE3DBF2D6C30D0
:102B6000DC00BF2DDC01BF2D5C084C3A0319AA2DF7
:102B70002A3A0319AF2D0A3A0319AA2DB22D5D087E
:102B800084005E0885001200663A031DC82DC92D19
:102B9000302EEE2D53088600870101088400013095
:102BA000850004308107003FD800013FD900023F73
:102BB000DA00033FDB00F62D530886008701010889
:102BC00084000130850004308107003FD800013FB8
:102BD000D900023FDA00033FDB00F62D5C084C3AD7
:102BE0000319DC2D203A0319CA2DF62D5D08013E8C
:102BF000D40000305E3DD50052088600870154089D
:102C0000C03F5508C13F272E51082000E900210090
:102C100050082000E80021005B082000ED002100A2
:102C20005A082000EC00210059082000EB00210088
:102C300058082000EA0021005D0884005E08850035
:102C400000082000EE008031792095315B2E5D0870
:102C500084005E0885000008663A0319042E302EB1
:102C60002100520886008701013081074131031895
:102C7000810A5B2E520886008701403FD400413F05
:102C8000D50054088400550885000008D600D701F7
:102C900056082000A300210057082000A4002100AE
:102CA00051082000A600210050082000A500923104
:102CB00088229531302E0800200027088039B10085
:102CC0002735B800A61F652E662E672E38143808E3
:102CD00003196B2E6C2E7C2E380A031D702E712E5C
:102CE000792E0030A7000030A6000030A50000308B
:102CF000A400A617A701842E0030A7000030A6006C
:102D00000030A5000030A40023088039B106233527
:102D1000B900A21F8C2E8D2E8E2E3914390803195E
:102D2000922E932EA32E390A031D972E982EA02E95
:102D30000030A3000030A2000030A1000030A0004D
:102D4000A217A301AB2E0030A3000030A200003078
:102D5000A1000030A0002308220421042004031D48
:102D6000B22EB32ECA2E0030A7000030A6000030CD
:102D7000A5000030A4008030A6047F30A7043108ED
:102D8000A7042708A3002608A2002508A1002408FC
:102D9000A000FF2F3808031DCE2ECF2ED82E0030D6
:102DA000A3000030A2000030A1000030A000FF2FDF
:102DB0003808A800A9012908AB0039082802AA0090
:102DC000031CAB032A087F3EB20000302B3DB3004A
:102DD0002708B0002608AF002508AE002408AD0083
:102DE0000030A7000030A6000030A5000030A4008D
:102DF0000030B7000030B6000030B5000030B4003D
:102E0000B9013E2F39080319062F072F212F013052
:102E1000AD35AE0DAF0DB00D890B082F0130A435C7
:102E2000A50DA60DA70D890B0F2FB71F182F192F52
:102E30001A2F24140130B435B50DB60DB70D890B1A
:102E40001B2F23083002031D2F2F22082F02031DE2
:102E50002F2F21082E02031D2F2F20082D02031CC7
:102E6000322F332F3C2F37172008AD022108AE3BFD
:102E70002208AF3B2308B03B0130B9071A303902B2
:102E8000031C432F442F022F30082F042E042D043F
:102E900003194B2F4C2F652F3414652F0130A435A7
:102EA000A50DA60DA70D890B4F2FB71F582F592F12
:102EB0005A2F24140130B435B50DB60DB70D890B5A
:102EC0005B2FFF30B207FF30B33DA61F682F692F7D
:102ED0004E2FB901B71F6D2F6E2F8A2FFF3034058B
:102EE000A800FF303505A900FF303605AA007F3065
:102EF0003705AB002B082A04290428040319812F65
:102F0000822F852F0130B9008A2F241C882F892F0A
:102F10008A2F822F390803198E2F8F2FB52F01305A
:102F2000A4070030A53DA63DA73D271C982F992F4B
:102F3000B52F2408A8002508A9002608AA002708FC
:102F4000AB000130AC00AB37AA0CA90CA80CAC0B41
:102F5000A32F2B08A7002A08A6002908A5002808E7
:102F6000A4000130B2070030B33D3308803AA80016
:102F700080302802031DBE2FFF303202031CC12FF8
:102F8000C22FCF2FFF302000B2000030B30000303E
:102F9000A7000030A6000030A5000030A4002000EB
:102FA0003308803AA80080302802031DD92F013051
:102FB00032020318DC2FDD2FE92F2000B201B3010C
:102FC0000030A7000030A6000030A5000030A400AB
:102FD000B10120003208B800381CEF2FF02FF22F7B
:102FE000A617F42F7F30A6053808A8000130A836B0
:102FF000890BF72F2808A7003108A704C12E080065
:10300000103411340034003443341034D8340734CD
:10301000FF341D34003408340034003400340034EC
:103020000034003400340034003400340034003400
:1030300000340034003400340034003400340034F0
:10304000003400340034003452341E340034003470
:1030500061341E3470341E340034003400340034C3
:1030600043347234653461347434653464342034E8
:103070006234793420344B3469346D3475347234AD
:10308000613454346F346D346F346834693472345D
:103090006F340A340034533441345A3441344E349A
:1030A0004B3441345F3450346F3477346534723488
:1030B00042346F34613472346434323430343234F4
:1030C00034340A340034543468346934733420346A
:1030D00069347334203463346F346E346634693445
:1030E000673420346D346F346434653400345634BE
:1030F00048343A3425342E3431346634203456344E
:103100004C343A3425342E34313466340A340034A5
:1031100069346E34663400346E3461346E34003495
:103BC8000800080028001715080022000C12080039
:103BD80022008C12080022000C16080022008C1605
:103BE800080023001D121D16080064008001013121
:103BF800890BFA2D00347008031D032E052E0130A1
:103C0800062E00300800200021082200EA002000CB
:103C180020082200E900080078302100990080304F
:103C280022009600210098010800200021082200A7
:103C3800D900200020082200D80008002000210810
:103C48002200E600200020082200E50008008B1072
:103C58002100151700302000A0000030A1009E317F
:103C680019269E310800200023082204210420047C
:103C780003193F2E402E422E8030A3060800200054
:103C88001113220069086A0403194B2E4C2E512E79
:103C98006A088A0069080A009E3108002000200886
:103CA80021040319582E592E602E21082200D10014
:103CB800200020082200D00008002000200821044D
:103CC8000319672E682E6F2E21082200CF002000CE
:103CD80020082200CE000800200020082104031933
:103CE800762E772E7E2E21082200CD002000200877
:103CF8002200CC000800C33028009600950100304F
:103D08002200E5001030E6002000921021009214F5
:103D18007F302800970008002000A200883100208A
:103D28009E31003A0319992E9A2E922E20002208CD
:103D3800A0008731D8279E3108009E3110269E3179
:103D48009031AD209E319E317F269E319E31B42622
:103D58009E31913110219E319E312B269E310800D3
:103D6800603021009E009B019C019F0101309D0055
:103D780020001113E430A0001D30A1009E31072659
:103D88009E312100111708005D302100E600003047
:103D9800DF00E00022005C082100E20022005B084E
:103DA8002100E100E630E3009F3144279E310800FE
:103DB8002000A31BE02EE12EE22EF12E2009A00008
:103DC8002109A1002209A2002309A300A00A0319BE
:103DD800A10A0319A20A0319A30A080008307302EA
:103DE8000318F72EF82E092F7408303E860001308C
:103DF8008700010823009A007408013E0739F6007D
:103E08007608F4000130F3070B2F21001112080087
:103E180020002008A5002508860002308700A50A92
:103E28002208A4002108A300A10A0319A20A230852
:103E38008400240885000008C03F8908031D252F39
:103E4800262F0F2F08002000A301A401392F0630C8
:103E58002000A2003030890B2F2FA20B2F2F00003B
:103E680001302000A3070030A43D21082402031DCF
:103E78003F2F20082302031C422F432F2B2F08001B
:103E880021006208E5006108E400552F6008D100B0
:103E98005F08D000E430D2006308D30095314A258A
:103EA8009F31210064088400650885001200031D05
:103EB8005E2F5F2F4A2FDF01E00108004330F60034
:103EC800903101209F316F2FF801903143209F31AD
:103ED800F9000130F8079D31FF259F31003A031D95
:103EE800762F772F682F63307906031D7C2F7D2F5F
:103EF800802F01302200DA00080001302200D607A6
:103F08000030D73D00305702143003195602031C05
:103F18008E2F8F2F9D2F650866040319942F952FD8
:103F28009A2F66088A0065080A009F312200D60188
:103F3800D7012000921008002000A50122000C15CE
:103F480020302000A0000330A1009F3127279F3197
:103F580022000C11F4302000A0000130A1009F3194
:103F680027279F3101302000A50702302502031CB6
:103F7800BE2FBF2FA22F080080302000E30667085D
:103F8800CF006608CE006508CD006408CC00630841
:103F9800D3006208D2006108D1006008D0008B31DC
:103FA800B9239F3120004F08E3004E08E2004D0876
:103FB800E1004C08E00008002000A401A501201C35
:103FC800E62FE72FEB2F2208A4072308A53D013091
:103FD800A235A30D890BEC2F0130A136A00C890B5B
:103FE800F12F20082104031DFA2FFB2FE32F2508AA
:083FF800A1002408A00008004C
:020000040001F9
:04000E00E43FFF3E8E
:00000001FF
